:020000040000FA
:060000000A128A1110280B
:10000800FE00030EF5000A08F600831203137F08AA
:10001800F7000A128A1198280A128A1113288313E2
:100028004030FD000130FE000330FF003530840011
:100038000A128A11F4200A128A11F80183010A129D
:100048008A1126287430831603138F00C0308B0062
:100058008C018312031387018030831603138700F2
:10006800981618128312031398178316031318157A
:100078008312031318160830831603139900831686
:10008800031788018901283084003530831203134F
:10009800A4000408A5000B30A600240884008313DC
:1000A8000008A700A40A2508840027088000A50ADC
:1000B800A60B5128B301B40169288312031333082E
:1000C800283E8400831300089900831603139818A8
:1000D8006E286F286128E83083120313A0000330CC
:1000E800A1000A128A11BE200A128A11831603136C
:1000F800981C7F2880287A28013083120313B307BD
:100108000318B40A0030B4073408803AFF0080307E
:100118007F02031D91280C303302031C9428952874
:1001280069280A128A1110288C1E9B289C28B4283A
:100138001A08F4007408F800AE287808831203132C
:1001480099000A30F0000030F1000A128A11D92013
:100158000A128A11831603139818B328B428A12801
:1001680077088312FF0076088A00750E8300FE0E5A
:100178007E0E090083120313A201A30100000130BF
:1001880083120313A2070318A30A0030A307230846
:10019800803AFF0083307F02031DD428E830220212
:1001A800031CD728D828C2280800F201F301000050
:1001B8000130F2070318F30A0030F3077308803A96
:1001C800FF0083307F02031DEB28E8307202031C16
:1001D800EE28EF28DB2808007E088A007F088200C6
:1001E8000A128A11F0200A128A118000840A04086F
:1001F8007D0603190034FF0A0319FE0AF428203487
:1002080048344F344C34413420344D3455344E3412
:0402180044344F34E7
:04400E00D42CFF3F70
:00000001FF
